{
  "contractName": "IPFSStorage",
  "abi": [
    {
      "inputs": [
        {
          "name": "_digest",
          "type": "bytes32"
        },
        {
          "name": "_hashFunction",
          "type": "uint8"
        },
        {
          "name": "_size",
          "type": "uint8"
        }
      ],
      "payable": false,
      "stateMutability": "nonpayable",
      "type": "constructor"
    },
    {
      "anonymous": false,
      "inputs": [
        {
          "indexed": true,
          "name": "key",
          "type": "address"
        },
        {
          "indexed": false,
          "name": "digest",
          "type": "bytes32"
        },
        {
          "indexed": false,
          "name": "hashFunction",
          "type": "uint8"
        },
        {
          "indexed": false,
          "name": "size",
          "type": "uint8"
        }
      ],
      "name": "EntrySet",
      "type": "event"
    },
    {
      "anonymous": false,
      "inputs": [
        {
          "indexed": true,
          "name": "key",
          "type": "address"
        }
      ],
      "name": "EntryDeleted",
      "type": "event"
    },
    {
      "constant": true,
      "inputs": [
        {
          "name": "_address",
          "type": "address"
        }
      ],
      "name": "getEntry",
      "outputs": [
        {
          "name": "digest",
          "type": "bytes32"
        },
        {
          "name": "hashFunction",
          "type": "uint8"
        },
        {
          "name": "size",
          "type": "uint8"
        }
      ],
      "payable": false,
      "stateMutability": "view",
      "type": "function"
    }
  ],
  "bytecode": "0x608060405234801561001057600080fd5b5060405160608061032883398101806040528101908080519060200190929190805190602001909291908051906020019092919050505061004f610186565b606060405190810160405280856000191681526020018460ff1681526020018360ff168152509050806000803373ffffffffffffffffffffffffffffffffffffffff1673ffffffffffffffffffffffffffffffffffffffff1681526020019081526020016000206000820151816000019060001916905560208201518160010160006101000a81548160ff021916908360ff16021790555060408201518160010160016101000a81548160ff021916908360ff1602179055509050503373ffffffffffffffffffffffffffffffffffffffff167f631aa1496c76170e1d345cbad46551b5ce9e00454bc5058a321afa3e4c69be8f8585856040518084600019166000191681526020018360ff1660ff1681526020018260ff1660ff168152602001935050505060405180910390a2505050506101b1565b60606040519081016040528060008019168152602001600060ff168152602001600060ff1681525090565b610168806101c06000396000f300608060405260043610610041576000357c0100000000000000000000000000000000000000000000000000000000900463ffffffff1680637db6a4e414610046575b600080fd5b34801561005257600080fd5b50610087600480360381019080803573ffffffffffffffffffffffffffffffffffffffff1690602001909291905050506100bf565b6040518084600019166000191681526020018360ff1660ff1681526020018260ff1660ff168152602001935050505060405180910390f35b6000806000806000808673ffffffffffffffffffffffffffffffffffffffff1673ffffffffffffffffffffffffffffffffffffffff168152602001908152602001600020905080600001548160010160009054906101000a900460ff168260010160019054906101000a900460ff169350935093505091939092505600a165627a7a723058201cbcd69ede38a297dc4bdf475fcf1127443884c4659ba1daac616616df6c26630029",
  "source": "pragma solidity ^0.4.18;\r\n\r\n\r\n/**\r\n * @title IPFSStorage\r\n * @author Forest Fang (@saurfang)\r\n * @dev Stores IPFS (multihash) hash by address. A multihash entry is in the format\r\n */\r\ncontract IPFSStorage {\r\n  struct Multihash {\r\n    bytes32 digest;\r\n    uint8 hashFunction;\r\n    uint8 size;\r\n  }\r\n\r\n  mapping (address => Multihash) private entries;\r\n\r\n  event EntrySet (\r\n    address indexed key,\r\n    bytes32 digest,\r\n    uint8 hashFunction,\r\n    uint8 size\r\n  );\r\n\r\n  event EntryDeleted (\r\n    address indexed key\r\n  );\r\n\r\n  /**\r\n   * @dev associate a multihash entry with the sender address\r\n   * @param _digest hash digest produced by hashing content using hash function\r\n   * @param _hashFunction hashFunction code for the hash function used\r\n   * @param _size length of the digest\r\n   */\r\n  constructor(bytes32 _digest, uint8 _hashFunction, uint8 _size)\r\n  public\r\n  {\r\n    Multihash memory entry = Multihash(_digest, _hashFunction, _size);\r\n    entries[msg.sender] = entry;\r\n    emit EntrySet(\r\n      msg.sender, \r\n      _digest, \r\n      _hashFunction, \r\n      _size\r\n    );\r\n  }\r\n\r\n  /**\r\n   * @dev deassociate any multihash entry with the sender address\r\n  \r\n  function clearEntry()\r\n  public\r\n  {\r\n    require(entries[msg.sender].digest != 0);\r\n    delete entries[msg.sender];\r\n    EntryDeleted(msg.sender);\r\n  }\r\n */\r\n  /**\r\n   * @dev retrieve multihash entry associated with an address\r\n   * @param _address address used as key\r\n   */\r\n  function getEntry(address _address)\r\n  public\r\n  view\r\n  returns(bytes32 digest, uint8 hashFunction, uint8 size)\r\n  {\r\n    Multihash storage entry = entries[_address];\r\n    return (entry.digest, entry.hashFunction, entry.size);\r\n  }\r\n}",
  "sourcePath": "C:\\Users\\Giuppi\\giuppi-lab\\farmchain\\blockchain-service\\truffle\\contracts\\IPFSStorage.sol",
  "compiler": {
    "name": "solc",
    "version": "0.4.24+commit.e67f0147.Emscripten.clang"
  },
  "schemaVersion": "2.0.1",
  "updatedAt": "2020-03-05T14:12:19.787Z"
}