{
  "contractName": "Media",
  "abi": [
    {
      "constant": true,
      "inputs": [],
      "name": "latitude",
      "outputs": [
        {
          "name": "",
          "type": "bytes"
        }
      ],
      "payable": false,
      "stateMutability": "view",
      "type": "function"
    },
    {
      "constant": true,
      "inputs": [],
      "name": "longitude",
      "outputs": [
        {
          "name": "",
          "type": "bytes"
        }
      ],
      "payable": false,
      "stateMutability": "view",
      "type": "function"
    },
    {
      "constant": true,
      "inputs": [],
      "name": "filename",
      "outputs": [
        {
          "name": "",
          "type": "bytes"
        }
      ],
      "payable": false,
      "stateMutability": "view",
      "type": "function"
    },
    {
      "constant": true,
      "inputs": [],
      "name": "timestamp",
      "outputs": [
        {
          "name": "",
          "type": "bytes"
        }
      ],
      "payable": false,
      "stateMutability": "view",
      "type": "function"
    },
    {
      "inputs": [
        {
          "name": "_filename",
          "type": "bytes"
        },
        {
          "name": "_timestamp",
          "type": "bytes"
        },
        {
          "name": "_longitude",
          "type": "bytes"
        },
        {
          "name": "_latitude",
          "type": "bytes"
        }
      ],
      "payable": false,
      "stateMutability": "nonpayable",
      "type": "constructor"
    }
  ],
  "bytecode": "0x608060405234801561001057600080fd5b506040516106b53803806106b58339810180604052810190808051820192919060200180518201929190602001805182019291906020018051820192919050505083600090805190602001906100679291906100b6565b50826001908051906020019061007e9291906100b6565b5081600290805190602001906100959291906100b6565b5080600390805190602001906100ac9291906100b6565b505050505061015b565b828054600181600116156101000203166002900490600052602060002090601f016020900481019282601f106100f757805160ff1916838001178555610125565b82800160010185558215610125579182015b82811115610124578251825591602001919060010190610109565b5b5090506101329190610136565b5090565b61015891905b8082111561015457600081600090555060010161013c565b5090565b90565b61054b8061016a6000396000f300608060405260043610610062576000357c0100000000000000000000000000000000000000000000000000000000900463ffffffff1680634fd7d76a14610067578063589af69c146100f7578063a293255814610187578063b80777ea14610217575b600080fd5b34801561007357600080fd5b5061007c6102a7565b6040518080602001828103825283818151815260200191508051906020019080838360005b838110156100bc5780820151818401526020810190506100a1565b50505050905090810190601f1680156100e95780820380516001836020036101000a031916815260200191505b509250505060405180910390f35b34801561010357600080fd5b5061010c610345565b6040518080602001828103825283818151815260200191508051906020019080838360005b8381101561014c578082015181840152602081019050610131565b50505050905090810190601f1680156101795780820380516001836020036101000a031916815260200191505b509250505060405180910390f35b34801561019357600080fd5b5061019c6103e3565b6040518080602001828103825283818151815260200191508051906020019080838360005b838110156101dc5780820151818401526020810190506101c1565b50505050905090810190601f1680156102095780820380516001836020036101000a031916815260200191505b509250505060405180910390f35b34801561022357600080fd5b5061022c610481565b6040518080602001828103825283818151815260200191508051906020019080838360005b8381101561026c578082015181840152602081019050610251565b50505050905090810190601f1680156102995780820380516001836020036101000a031916815260200191505b509250505060405180910390f35b60038054600181600116156101000203166002900480601f01602080910402602001604051908101604052809291908181526020018280546001816001161561010002031660029004801561033d5780601f106103125761010080835404028352916020019161033d565b820191906000526020600020905b81548152906001019060200180831161032057829003601f168201915b505050505081565b60028054600181600116156101000203166002900480601f0160208091040260200160405190810160405280929190818152602001828054600181600116156101000203166002900480156103db5780601f106103b0576101008083540402835291602001916103db565b820191906000526020600020905b8154815290600101906020018083116103be57829003601f168201915b505050505081565b60008054600181600116156101000203166002900480601f0160208091040260200160405190810160405280929190818152602001828054600181600116156101000203166002900480156104795780601f1061044e57610100808354040283529160200191610479565b820191906000526020600020905b81548152906001019060200180831161045c57829003601f168201915b505050505081565b60018054600181600116156101000203166002900480601f0160208091040260200160405190810160405280929190818152602001828054600181600116156101000203166002900480156105175780601f106104ec57610100808354040283529160200191610517565b820191906000526020600020905b8154815290600101906020018083116104fa57829003601f168201915b5050505050815600a165627a7a723058203e8bdfdc1ad7020db8e6b12af0a4705432109314b5fec2fc91bd16053a10ac1b0029",
  "source": "pragma solidity ^0.4.24;\r\n\r\ncontract FarmContract\r\n{\r\n    address private owner;\r\n    mapping(bytes => address) private products;\r\n    mapping(bytes => address) private medias;\r\n\r\n    constructor() public\r\n    {\r\n        owner = msg.sender;\r\n    }\r\n\r\n    modifier onlymanager()\r\n    {\r\n        require(msg.sender == owner);\r\n        _;\r\n    }\r\n\r\n    function createProduct(bytes _name) public onlymanager\r\n    {\r\n\r\n        address product = new Product(_name);\r\n\r\n        products[_name] = product;\r\n\r\n    }\r\n    function addMedia(bytes _filename,\r\n                      bytes _timestamp,\r\n                      bytes _longitude,\r\n                      bytes _latitude) public onlymanager\r\n    {\r\n\r\n        address media = new Media(_filename, _timestamp, _longitude, _latitude);\r\n\r\n        medias[_filename] = media;\r\n\r\n\r\n    }\r\n\r\n    function addMediaToProduct(bytes _media,\r\n                               bytes _product) public onlymanager\r\n    {\r\n\r\n        address product_addr = products[_product];\r\n\r\n        require(product_addr != 0x0, \"Prodotto non trovato\");\r\n\r\n        Product product = Product(product_addr);\r\n        address media_addr = medias[_media];\r\n        product.addMedia(_media, media_addr);\r\n    }\r\n}\r\n\r\n\r\ncontract Product\r\n{\r\n    bytes public name;\r\n    mapping(bytes => address) private medias;\r\n\r\n    address private owner;\r\n\r\n    modifier onlymanager()\r\n    {\r\n        require(msg.sender == owner);\r\n        _;\r\n    }\r\n\r\n    constructor(bytes _name) public\r\n    {\r\n        // This will only be managed by the \"father\" contract (\"CarrefourFactory\"):\r\n        owner = msg.sender;\r\n\r\n        name = _name;\r\n    }\r\n    function addMedia(bytes _media, address _media_addr) public onlymanager\r\n    {\r\n        medias[_media] = _media_addr;\r\n    }\r\n    \r\n\r\n}\r\n\r\ncontract Media\r\n{\r\n    bytes   public filename;\r\n    bytes public timestamp;\r\n    bytes public longitude;\r\n    bytes   public latitude;\r\n\r\n    constructor(bytes   _filename,\r\n                bytes _timestamp,\r\n                bytes _longitude,\r\n                bytes   _latitude) public\r\n    {\r\n        filename = _filename;\r\n        timestamp = _timestamp;\r\n        longitude = _longitude;\r\n        latitude = _latitude;\r\n    }\r\n}\r\n\r\n",
  "sourcePath": "C:\\Users\\Giuppi\\giuppi-lab\\farmchain\\blockchain-service\\truffle\\contracts\\FarmContract.sol",
  "compiler": {
    "name": "solc",
    "version": "0.4.24+commit.e67f0147.Emscripten.clang"
  },
  "schemaVersion": "2.0.1",
  "updatedAt": "2019-04-16T16:37:39.952Z"
}