{
  "contractName": "Product",
  "abi": [
    {
      "constant": true,
      "inputs": [],
      "name": "name",
      "outputs": [
        {
          "name": "",
          "type": "string"
        }
      ],
      "payable": false,
      "stateMutability": "view",
      "type": "function"
    },
    {
      "inputs": [
        {
          "name": "_name",
          "type": "string"
        }
      ],
      "payable": false,
      "stateMutability": "nonpayable",
      "type": "constructor"
    },
    {
      "constant": false,
      "inputs": [
        {
          "name": "_media",
          "type": "string"
        },
        {
          "name": "filename",
          "type": "string"
        },
        {
          "name": "timestamp",
          "type": "uint256"
        },
        {
          "name": "longitude",
          "type": "uint256"
        },
        {
          "name": "latitude",
          "type": "uint256"
        }
      ],
      "name": "addMedia",
      "outputs": [],
      "payable": false,
      "stateMutability": "nonpayable",
      "type": "function"
    }
  ],
  "bytecode": "0x608060405234801561001057600080fd5b506040516106a13803806106a18339810180604052810190808051820192919050505033600260006101000a81548173ffffffffffffffffffffffffffffffffffffffff021916908373ffffffffffffffffffffffffffffffffffffffff160217905550806000908051906020019061008a929190610091565b5050610136565b828054600181600116156101000203166002900490600052602060002090601f016020900481019282601f106100d257805160ff1916838001178555610100565b82800160010185558215610100579182015b828111156100ff5782518255916020019190600101906100e4565b5b50905061010d9190610111565b5090565b61013391905b8082111561012f576000816000905550600101610117565b5090565b90565b61055c806101456000396000f30060806040526004361061004c576000357c0100000000000000000000000000000000000000000000000000000000900463ffffffff16806306fdde03146100515780637b36ba47146100e1575b600080fd5b34801561005d57600080fd5b506100666101ae565b6040518080602001828103825283818151815260200191508051906020019080838360005b838110156100a657808201518184015260208101905061008b565b50505050905090810190601f1680156100d35780820380516001836020036101000a031916815260200191505b509250505060405180910390f35b3480156100ed57600080fd5b506101ac600480360381019080803590602001908201803590602001908080601f0160208091040260200160405190810160405280939291908181526020018383808284378201915050505050509192919290803590602001908201803590602001908080601f016020809104026020016040519081016040528093929190818152602001838380828437820191505050505050919291929080359060200190929190803590602001909291908035906020019092919050505061024c565b005b60008054600181600116156101000203166002900480601f0160208091040260200160405190810160405280929190818152602001828054600181600116156101000203166002900480156102445780601f1061021957610100808354040283529160200191610244565b820191906000526020600020905b81548152906001019060200180831161022757829003601f168201915b505050505081565b600260009054906101000a900473ffffffffffffffffffffffffffffffffffffffff1673ffffffffffffffffffffffffffffffffffffffff163373ffffffffffffffffffffffffffffffffffffffff161415156102a857600080fd5b836001866040518082805190602001908083835b6020831015156102e157805182526020820191506020810190506020830392506102bc565b6001836020036101000a0380198251168184511680821785525050505050509050019150509081526020016040518091039020600001908051906020019061032a92919061048b565b50826001866040518082805190602001908083835b602083101515610364578051825260208201915060208101905060208303925061033f565b6001836020036101000a038019825116818451168082178552505050505050905001915050908152602001604051809103902060010181905550816001866040518082805190602001908083835b6020831015156103d757805182526020820191506020810190506020830392506103b2565b6001836020036101000a038019825116818451168082178552505050505050905001915050908152602001604051809103902060020181905550806001866040518082805190602001908083835b60208310151561044a5780518252602082019150602081019050602083039250610425565b6001836020036101000a0380198251168184511680821785525050505050509050019150509081526020016040518091039020600301819055505050505050565b828054600181600116156101000203166002900490600052602060002090601f016020900481019282601f106104cc57805160ff19168380011785556104fa565b828001600101855582156104fa579182015b828111156104f95782518255916020019190600101906104de565b5b509050610507919061050b565b5090565b61052d91905b80821115610529576000816000905550600101610511565b5090565b905600a165627a7a723058209f5ce404ff81d24458659ffc5abc8b2968e25382b94ea515a7b15f8ebce553620029",
  "source": "pragma solidity ^0.4.24;\r\n\r\ncontract FarmContract\r\n{\r\n    address private owner;\r\n    mapping(string => address) private products;\r\n    mapping(string => address) private medias;\r\n\r\n    constructor() public\r\n    {\r\n        owner = msg.sender;\r\n\r\n    }\r\n\r\n    modifier onlymanager()\r\n    {\r\n        require(msg.sender == owner);\r\n        _;\r\n\r\n    }\r\n\r\n    function createProduct(string _name) public onlymanager\r\n    {\r\n\r\n        address product = new Product(_name);\r\n\r\n        products[_name] = product;\r\n\r\n    }/*\r\n    function addMedia(string _filename,\r\n                      string _timestamp,\r\n                      string _longitude,\r\n                      string _latitude) public onlymanager\r\n    {\r\n\r\n        address media = new Media(_filename, _timestamp, _longitude, _latitude);\r\n\r\n        medias[_filename] = media;\r\n\r\n\r\n    }*/\r\n\r\n    function addMediaToProduct(string _media, string    filename,uint256  timestamp,uint256  longitude,uint256    latitude,\r\n                               string _product) public onlymanager\r\n    {\r\n\r\n        address product_addr = products[_product];\r\n\r\n        require(product_addr != 0x0, \"Prodotto non trovato\");\r\n\r\n        Product product = Product(product_addr);\r\n       // address media_addr = medias[_media];\r\n        product.addMedia(_media, filename,timestamp,longitude,latitude);\r\n    }\r\n}\r\n\r\n\r\ncontract Product\r\n{\r\n    string public name;\r\n    mapping(string => Media) medias;\r\n    struct Media {\r\n        string    filename;\r\n        uint256  timestamp;\r\n        uint256  longitude;\r\n        uint256    latitude;\r\n    }\r\n    address private owner;\r\n\r\n    modifier onlymanager()\r\n    {\r\n        require(msg.sender == owner);\r\n        _;\r\n    }\r\n\r\n    constructor(string _name) public\r\n    {\r\n        // This will only be managed by the \"father\" contract (\"CarrefourFactory\"):\r\n        owner = msg.sender;\r\n\r\n        name = _name;\r\n    }\r\n    function addMedia(string _media, string    filename,uint256  timestamp,uint256  longitude,uint256    latitude) public onlymanager\r\n    {\r\n        medias[_media].filename = filename;\r\n        medias[_media].timestamp = timestamp;\r\n        medias[_media].longitude = longitude;\r\n        medias[_media].latitude = latitude;\r\n    }\r\n    \r\n\r\n}\r\n/*\r\ncontract Media\r\n{\r\n    string   public filename;\r\n    string public timestamp;\r\n    string public longitude;\r\n    string   public latitude;\r\n\r\n    constructor(string   _filename,\r\n                string _timestamp,\r\n                string _longitude,\r\n                string   _latitude) public\r\n    {\r\n        filename = _filename;\r\n        timestamp = _timestamp;\r\n        longitude = _longitude;\r\n        latitude = _latitude;\r\n    }\r\n}\r\n\r\n*/",
  "sourcePath": "C:\\Users\\Giuppi\\giuppi-lab\\farmchain\\blockchain-service\\truffle\\contracts\\FarmContract.sol",
  "compiler": {
    "name": "solc",
    "version": "0.4.24+commit.e67f0147.Emscripten.clang"
  },
  "schemaVersion": "2.0.1",
  "updatedAt": "2020-03-05T14:12:19.791Z"
}